{
  "_format": "hh-sol-artifact-1",
  "contractName": "ERC721Token",
  "sourceName": "contracts/ERC721Token.sol",
  "abi": [
    {
      "inputs": [
        {
          "internalType": "string",
          "name": "name",
          "type": "string"
        },
        {
          "internalType": "string",
          "name": "symbol",
          "type": "string"
        },
        {
          "internalType": "address",
          "name": "initialOwner",
          "type": "address"
        }
      ],
      "stateMutability": "nonpayable",
      "type": "constructor"
    },
    {
      "inputs": [
        {
          "internalType": "address",
          "name": "sender",
          "type": "address"
        },
        {
          "internalType": "uint256",
          "name": "tokenId",
          "type": "uint256"
        },
        {
          "internalType": "address",
          "name": "owner",
          "type": "address"
        }
      ],
      "name": "ERC721IncorrectOwner",
      "type": "error"
    },
    {
      "inputs": [
        {
          "internalType": "address",
          "name": "operator",
          "type": "address"
        },
        {
          "internalType": "uint256",
          "name": "tokenId",
          "type": "uint256"
        }
      ],
      "name": "ERC721InsufficientApproval",
      "type": "error"
    },
    {
      "inputs": [
        {
          "internalType": "address",
          "name": "approver",
          "type": "address"
        }
      ],
      "name": "ERC721InvalidApprover",
      "type": "error"
    },
    {
      "inputs": [
        {
          "internalType": "address",
          "name": "operator",
          "type": "address"
        }
      ],
      "name": "ERC721InvalidOperator",
      "type": "error"
    },
    {
      "inputs": [
        {
          "internalType": "address",
          "name": "owner",
          "type": "address"
        }
      ],
      "name": "ERC721InvalidOwner",
      "type": "error"
    },
    {
      "inputs": [
        {
          "internalType": "address",
          "name": "receiver",
          "type": "address"
        }
      ],
      "name": "ERC721InvalidReceiver",
      "type": "error"
    },
    {
      "inputs": [
        {
          "internalType": "address",
          "name": "sender",
          "type": "address"
        }
      ],
      "name": "ERC721InvalidSender",
      "type": "error"
    },
    {
      "inputs": [
        {
          "internalType": "uint256",
          "name": "tokenId",
          "type": "uint256"
        }
      ],
      "name": "ERC721NonexistentToken",
      "type": "error"
    },
    {
      "inputs": [
        {
          "internalType": "address",
          "name": "owner",
          "type": "address"
        }
      ],
      "name": "OwnableInvalidOwner",
      "type": "error"
    },
    {
      "inputs": [
        {
          "internalType": "address",
          "name": "account",
          "type": "address"
        }
      ],
      "name": "OwnableUnauthorizedAccount",
      "type": "error"
    },
    {
      "anonymous": false,
      "inputs": [
        {
          "indexed": true,
          "internalType": "address",
          "name": "owner",
          "type": "address"
        },
        {
          "indexed": true,
          "internalType": "address",
          "name": "approved",
          "type": "address"
        },
        {
          "indexed": true,
          "internalType": "uint256",
          "name": "tokenId",
          "type": "uint256"
        }
      ],
      "name": "Approval",
      "type": "event"
    },
    {
      "anonymous": false,
      "inputs": [
        {
          "indexed": true,
          "internalType": "address",
          "name": "owner",
          "type": "address"
        },
        {
          "indexed": true,
          "internalType": "address",
          "name": "operator",
          "type": "address"
        },
        {
          "indexed": false,
          "internalType": "bool",
          "name": "approved",
          "type": "bool"
        }
      ],
      "name": "ApprovalForAll",
      "type": "event"
    },
    {
      "anonymous": false,
      "inputs": [
        {
          "indexed": false,
          "internalType": "uint256",
          "name": "_fromTokenId",
          "type": "uint256"
        },
        {
          "indexed": false,
          "internalType": "uint256",
          "name": "_toTokenId",
          "type": "uint256"
        }
      ],
      "name": "BatchMetadataUpdate",
      "type": "event"
    },
    {
      "anonymous": false,
      "inputs": [
        {
          "indexed": false,
          "internalType": "uint256",
          "name": "_tokenId",
          "type": "uint256"
        }
      ],
      "name": "MetadataUpdate",
      "type": "event"
    },
    {
      "anonymous": false,
      "inputs": [
        {
          "indexed": true,
          "internalType": "address",
          "name": "previousOwner",
          "type": "address"
        },
        {
          "indexed": true,
          "internalType": "address",
          "name": "newOwner",
          "type": "address"
        }
      ],
      "name": "OwnershipTransferred",
      "type": "event"
    },
    {
      "anonymous": false,
      "inputs": [
        {
          "indexed": true,
          "internalType": "address",
          "name": "from",
          "type": "address"
        },
        {
          "indexed": true,
          "internalType": "address",
          "name": "to",
          "type": "address"
        },
        {
          "indexed": true,
          "internalType": "uint256",
          "name": "tokenId",
          "type": "uint256"
        }
      ],
      "name": "Transfer",
      "type": "event"
    },
    {
      "inputs": [
        {
          "internalType": "address",
          "name": "to",
          "type": "address"
        },
        {
          "internalType": "uint256",
          "name": "tokenId",
          "type": "uint256"
        }
      ],
      "name": "approve",
      "outputs": [],
      "stateMutability": "nonpayable",
      "type": "function"
    },
    {
      "inputs": [
        {
          "internalType": "address",
          "name": "owner",
          "type": "address"
        }
      ],
      "name": "balanceOf",
      "outputs": [
        {
          "internalType": "uint256",
          "name": "",
          "type": "uint256"
        }
      ],
      "stateMutability": "view",
      "type": "function"
    },
    {
      "inputs": [
        {
          "internalType": "uint256",
          "name": "tokenId",
          "type": "uint256"
        }
      ],
      "name": "getApproved",
      "outputs": [
        {
          "internalType": "address",
          "name": "",
          "type": "address"
        }
      ],
      "stateMutability": "view",
      "type": "function"
    },
    {
      "inputs": [
        {
          "internalType": "address",
          "name": "owner",
          "type": "address"
        },
        {
          "internalType": "address",
          "name": "operator",
          "type": "address"
        }
      ],
      "name": "isApprovedForAll",
      "outputs": [
        {
          "internalType": "bool",
          "name": "",
          "type": "bool"
        }
      ],
      "stateMutability": "view",
      "type": "function"
    },
    {
      "inputs": [],
      "name": "name",
      "outputs": [
        {
          "internalType": "string",
          "name": "",
          "type": "string"
        }
      ],
      "stateMutability": "view",
      "type": "function"
    },
    {
      "inputs": [],
      "name": "owner",
      "outputs": [
        {
          "internalType": "address",
          "name": "",
          "type": "address"
        }
      ],
      "stateMutability": "view",
      "type": "function"
    },
    {
      "inputs": [
        {
          "internalType": "uint256",
          "name": "tokenId",
          "type": "uint256"
        }
      ],
      "name": "ownerOf",
      "outputs": [
        {
          "internalType": "address",
          "name": "",
          "type": "address"
        }
      ],
      "stateMutability": "view",
      "type": "function"
    },
    {
      "inputs": [],
      "name": "renounceOwnership",
      "outputs": [],
      "stateMutability": "nonpayable",
      "type": "function"
    },
    {
      "inputs": [
        {
          "internalType": "uint256",
          "name": "tokenId",
          "type": "uint256"
        },
        {
          "internalType": "uint256",
          "name": "salePrice",
          "type": "uint256"
        }
      ],
      "name": "royaltyInfo",
      "outputs": [
        {
          "internalType": "address",
          "name": "receiver",
          "type": "address"
        },
        {
          "internalType": "uint256",
          "name": "royaltyAmount",
          "type": "uint256"
        }
      ],
      "stateMutability": "view",
      "type": "function"
    },
    {
      "inputs": [
        {
          "internalType": "address",
          "name": "to",
          "type": "address"
        },
        {
          "internalType": "string",
          "name": "uri",
          "type": "string"
        },
        {
          "internalType": "address",
          "name": "royaltyRecipient",
          "type": "address"
        },
        {
          "internalType": "uint96",
          "name": "royaltyFraction",
          "type": "uint96"
        }
      ],
      "name": "safeMint",
      "outputs": [
        {
          "internalType": "uint256",
          "name": "",
          "type": "uint256"
        }
      ],
      "stateMutability": "nonpayable",
      "type": "function"
    },
    {
      "inputs": [
        {
          "internalType": "address",
          "name": "from",
          "type": "address"
        },
        {
          "internalType": "address",
          "name": "to",
          "type": "address"
        },
        {
          "internalType": "uint256",
          "name": "tokenId",
          "type": "uint256"
        }
      ],
      "name": "safeTransferFrom",
      "outputs": [],
      "stateMutability": "nonpayable",
      "type": "function"
    },
    {
      "inputs": [
        {
          "internalType": "address",
          "name": "from",
          "type": "address"
        },
        {
          "internalType": "address",
          "name": "to",
          "type": "address"
        },
        {
          "internalType": "uint256",
          "name": "tokenId",
          "type": "uint256"
        },
        {
          "internalType": "bytes",
          "name": "data",
          "type": "bytes"
        }
      ],
      "name": "safeTransferFrom",
      "outputs": [],
      "stateMutability": "nonpayable",
      "type": "function"
    },
    {
      "inputs": [
        {
          "internalType": "address",
          "name": "operator",
          "type": "address"
        },
        {
          "internalType": "bool",
          "name": "approved",
          "type": "bool"
        }
      ],
      "name": "setApprovalForAll",
      "outputs": [],
      "stateMutability": "nonpayable",
      "type": "function"
    },
    {
      "inputs": [
        {
          "internalType": "bytes4",
          "name": "interfaceId",
          "type": "bytes4"
        }
      ],
      "name": "supportsInterface",
      "outputs": [
        {
          "internalType": "bool",
          "name": "",
          "type": "bool"
        }
      ],
      "stateMutability": "view",
      "type": "function"
    },
    {
      "inputs": [],
      "name": "symbol",
      "outputs": [
        {
          "internalType": "string",
          "name": "",
          "type": "string"
        }
      ],
      "stateMutability": "view",
      "type": "function"
    },
    {
      "inputs": [
        {
          "internalType": "uint256",
          "name": "tokenId",
          "type": "uint256"
        }
      ],
      "name": "tokenURI",
      "outputs": [
        {
          "internalType": "string",
          "name": "",
          "type": "string"
        }
      ],
      "stateMutability": "view",
      "type": "function"
    },
    {
      "inputs": [
        {
          "internalType": "address",
          "name": "from",
          "type": "address"
        },
        {
          "internalType": "address",
          "name": "to",
          "type": "address"
        },
        {
          "internalType": "uint256",
          "name": "tokenId",
          "type": "uint256"
        }
      ],
      "name": "transferFrom",
      "outputs": [],
      "stateMutability": "nonpayable",
      "type": "function"
    },
    {
      "inputs": [
        {
          "internalType": "address",
          "name": "newOwner",
          "type": "address"
        }
      ],
      "name": "transferOwnership",
      "outputs": [],
      "stateMutability": "nonpayable",
      "type": "function"
    }
  ],
  "bytecode": "0x60806040523480156200001157600080fd5b50604051620019e6380380620019e68339810160408190526200003491620001b2565b8083836000620000458382620002ce565b506001620000548282620002ce565b5050506001600160a01b0381166200008657604051631e4fbdf760e01b81526000600482015260240160405180910390fd5b62000091816200009b565b505050506200039a565b600780546001600160a01b038381166001600160a01b0319831681179093556040519116919082907f8be0079c531659141344cd1fd0a4f28419497f9722a3daafe3b4186f6b6457e090600090a35050565b634e487b7160e01b600052604160045260246000fd5b600082601f8301126200011557600080fd5b81516001600160401b0380821115620001325762000132620000ed565b604051601f8301601f19908116603f011681019082821181831017156200015d576200015d620000ed565b816040528381526020925086838588010111156200017a57600080fd5b600091505b838210156200019e57858201830151818301840152908201906200017f565b600093810190920192909252949350505050565b600080600060608486031215620001c857600080fd5b83516001600160401b0380821115620001e057600080fd5b620001ee8783880162000103565b945060208601519150808211156200020557600080fd5b50620002148682870162000103565b604086015190935090506001600160a01b03811681146200023457600080fd5b809150509250925092565b600181811c908216806200025457607f821691505b6020821081036200027557634e487b7160e01b600052602260045260246000fd5b50919050565b601f821115620002c957600081815260208120601f850160051c81016020861015620002a45750805b601f850160051c820191505b81811015620002c557828155600101620002b0565b5050505b505050565b81516001600160401b03811115620002ea57620002ea620000ed565b6200030281620002fb84546200023f565b846200027b565b602080601f8311600181146200033a5760008415620003215750858301515b600019600386901b1c1916600185901b178555620002c5565b600085815260208120601f198616915b828110156200036b578886015182559484019460019091019084016200034a565b50858210156200038a5787850151600019600388901b60f8161c191681555b5050505050600190811b01905550565b61163c80620003aa6000396000f3fe608060405234801561001057600080fd5b50600436106101165760003560e01c806370a08231116100a2578063a22cb46511610071578063a22cb46514610258578063b88d4fde1461026b578063c87b56dd1461027e578063e985e9c514610291578063f2fde38b146102a457600080fd5b806370a0823114610224578063715018a6146102375780638da5cb5b1461023f57806395d89b411461025057600080fd5b806323b872dd116100e957806323b872dd146101985780632a55205a146101ab57806342842e0e146101dd5780635ff97ebf146101f05780636352211e1461021157600080fd5b806301ffc9a71461011b57806306fdde0314610143578063081812fc14610158578063095ea7b314610183575b600080fd5b61012e61012936600461106d565b6102b7565b60405190151581526020015b60405180910390f35b61014b6102c8565b60405161013a91906110da565b61016b6101663660046110ed565b61035a565b6040516001600160a01b03909116815260200161013a565b610196610191366004611122565b610383565b005b6101966101a636600461114c565b610392565b6101be6101b9366004611188565b610422565b604080516001600160a01b03909316835260208301919091520161013a565b6101966101eb36600461114c565b610484565b6102036101fe366004611236565b6104a4565b60405190815260200161013a565b61016b61021f3660046110ed565b6104ed565b6102036102323660046112c7565b6104f8565b610196610540565b6007546001600160a01b031661016b565b61014b610554565b6101966102663660046112e2565b610563565b61019661027936600461131e565b61056e565b61014b61028c3660046110ed565b610585565b61012e61029f36600461139a565b610590565b6101966102b23660046112c7565b6105be565b60006102c2826105fc565b92915050565b6060600080546102d7906113cd565b80601f0160208091040260200160405190810160405280929190818152602001828054610303906113cd565b80156103505780601f1061032557610100808354040283529160200191610350565b820191906000526020600020905b81548152906001019060200180831161033357829003601f168201915b5050505050905090565b600061036582610621565b506000828152600460205260409020546001600160a01b03166102c2565b61038e82823361065a565b5050565b6001600160a01b0382166103c157604051633250574960e11b8152600060048201526024015b60405180910390fd5b60006103ce838333610667565b9050836001600160a01b0316816001600160a01b03161461041c576040516364283d7b60e01b81526001600160a01b03808616600483015260248201849052821660448201526064016103b8565b50505050565b60008281526008602090815260408083208151808301909252546001600160a01b038116808352600160a01b9091046001600160601b0316928201839052929161271090610470908661141d565b61047a9190611434565b9150509250929050565b61049f8383836040518060200160405280600081525061056e565b505050565b60006104ae610760565b60098054600091826104bf83611456565b9190505590506104cf868261078d565b6104d981866107a7565b6104e48185856107f7565b95945050505050565b60006102c282610621565b60006001600160a01b038216610524576040516322718ad960e21b8152600060048201526024016103b8565b506001600160a01b031660009081526003602052604090205490565b610548610760565b610552600061088e565b565b6060600180546102d7906113cd565b61038e3383836108e0565b610579848484610392565b61041c8484848461097f565b60606102c282610aa8565b6001600160a01b03918216600090815260056020908152604080832093909416825291909152205460ff1690565b6105c6610760565b6001600160a01b0381166105f057604051631e4fbdf760e01b8152600060048201526024016103b8565b6105f98161088e565b50565b60006001600160e01b0319821663152a902d60e11b14806102c257506102c282610bb9565b6000818152600260205260408120546001600160a01b0316806102c257604051637e27328960e01b8152600481018490526024016103b8565b61049f8383836001610bde565b6000828152600260205260408120546001600160a01b039081169083161561069457610694818486610ce4565b6001600160a01b038116156106d2576106b1600085600080610bde565b6001600160a01b038116600090815260036020526040902080546000190190555b6001600160a01b03851615610701576001600160a01b0385166000908152600360205260409020805460010190555b60008481526002602052604080822080546001600160a01b0319166001600160a01b0389811691821790925591518793918516917fddf252ad1be2c89b69c2b068fc378daa952ba7f163c4a11628f55a4df523b3ef91a4949350505050565b6007546001600160a01b031633146105525760405163118cdaa760e01b81523360048201526024016103b8565b61038e828260405180602001604052806000815250610d48565b60008281526006602052604090206107bf82826114bd565b506040518281527ff8e1a15aba9398e019f0b49df1a4fde98ee17ae345cb5f6b5e2c27f5033e8ce79060200160405180910390a15050565b612710816001600160601b031611156108445760405162461bcd60e51b815260206004820152600f60248201526e0526f79616c74793a203e313030303608c1b60448201526064016103b8565b6040805180820182526001600160a01b0393841681526001600160601b0392831660208083019182526000968752600890529190942093519051909116600160a01b029116179055565b600780546001600160a01b038381166001600160a01b0319831681179093556040519116919082907f8be0079c531659141344cd1fd0a4f28419497f9722a3daafe3b4186f6b6457e090600090a35050565b6001600160a01b03821661091257604051630b61174360e31b81526001600160a01b03831660048201526024016103b8565b6001600160a01b03838116600081815260056020908152604080832094871680845294825291829020805460ff191686151590811790915591519182527f17307eab39ab6107e8899845ad3d59bd9653f200f220920489ca2b5937696c31910160405180910390a3505050565b6001600160a01b0383163b1561041c57604051630a85bd0160e11b81526001600160a01b0384169063150b7a02906109c190339088908790879060040161157d565b6020604051808303816000875af19250505080156109fc575060408051601f3d908101601f191682019092526109f9918101906115ba565b60015b610a65573d808015610a2a576040519150601f19603f3d011682016040523d82523d6000602084013e610a2f565b606091505b508051600003610a5d57604051633250574960e11b81526001600160a01b03851660048201526024016103b8565b805181602001fd5b6001600160e01b03198116630a85bd0160e11b14610aa157604051633250574960e11b81526001600160a01b03851660048201526024016103b8565b5050505050565b6060610ab382610621565b5060008281526006602052604081208054610acd906113cd565b80601f0160208091040260200160405190810160405280929190818152602001828054610af9906113cd565b8015610b465780601f10610b1b57610100808354040283529160200191610b46565b820191906000526020600020905b815481529060010190602001808311610b2957829003601f168201915b505050505090506000610b6460408051602081019091526000815290565b90508051600003610b76575092915050565b815115610ba8578082604051602001610b909291906115d7565b60405160208183030381529060405292505050919050565b610bb184610d5f565b949350505050565b60006001600160e01b03198216632483248360e11b14806102c257506102c282610dd4565b8080610bf257506001600160a01b03821615155b15610cb4576000610c0284610621565b90506001600160a01b03831615801590610c2e5750826001600160a01b0316816001600160a01b031614155b8015610c415750610c3f8184610590565b155b15610c6a5760405163a9fbf51f60e01b81526001600160a01b03841660048201526024016103b8565b8115610cb25783856001600160a01b0316826001600160a01b03167f8c5be1e5ebec7d5bd14f71427d1e84f3dd0314c0f7b2291e5b200ac8c7c3b92560405160405180910390a45b505b5050600090815260046020526040902080546001600160a01b0319166001600160a01b0392909216919091179055565b610cef838383610e24565b61049f576001600160a01b038316610d1d57604051637e27328960e01b8152600481018290526024016103b8565b60405163177e802f60e01b81526001600160a01b0383166004820152602481018290526044016103b8565b610d528383610e87565b61049f600084848461097f565b6060610d6a82610621565b506000610d8260408051602081019091526000815290565b90506000815111610da25760405180602001604052806000815250610dcd565b80610dac84610eec565b604051602001610dbd9291906115d7565b6040516020818303038152906040525b9392505050565b60006001600160e01b031982166380ac58cd60e01b1480610e0557506001600160e01b03198216635b5e139f60e01b145b806102c257506301ffc9a760e01b6001600160e01b03198316146102c2565b60006001600160a01b03831615801590610bb15750826001600160a01b0316846001600160a01b03161480610e5e5750610e5e8484610590565b80610bb15750506000908152600460205260409020546001600160a01b03908116911614919050565b6001600160a01b038216610eb157604051633250574960e11b8152600060048201526024016103b8565b6000610ebf83836000610667565b90506001600160a01b0381161561049f576040516339e3563760e11b8152600060048201526024016103b8565b60606000610ef983610f7f565b600101905060008167ffffffffffffffff811115610f1957610f196111aa565b6040519080825280601f01601f191660200182016040528015610f43576020820181803683370190505b5090508181016020015b600019016f181899199a1a9b1b9c1cb0b131b232b360811b600a86061a8153600a8504945084610f4d57509392505050565b60008072184f03e93ff9f4daa797ed6e38ed64bf6a1f0160401b8310610fbe5772184f03e93ff9f4daa797ed6e38ed64bf6a1f0160401b830492506040015b6d04ee2d6d415b85acef81000000008310610fea576d04ee2d6d415b85acef8100000000830492506020015b662386f26fc10000831061100857662386f26fc10000830492506010015b6305f5e1008310611020576305f5e100830492506008015b612710831061103457612710830492506004015b60648310611046576064830492506002015b600a83106102c25760010192915050565b6001600160e01b0319811681146105f957600080fd5b60006020828403121561107f57600080fd5b8135610dcd81611057565b60005b838110156110a557818101518382015260200161108d565b50506000910152565b600081518084526110c681602086016020860161108a565b601f01601f19169290920160200192915050565b602081526000610dcd60208301846110ae565b6000602082840312156110ff57600080fd5b5035919050565b80356001600160a01b038116811461111d57600080fd5b919050565b6000806040838503121561113557600080fd5b61113e83611106565b946020939093013593505050565b60008060006060848603121561116157600080fd5b61116a84611106565b925061117860208501611106565b9150604084013590509250925092565b6000806040838503121561119b57600080fd5b50508035926020909101359150565b634e487b7160e01b600052604160045260246000fd5b600067ffffffffffffffff808411156111db576111db6111aa565b604051601f8501601f19908116603f01168101908282118183101715611203576112036111aa565b8160405280935085815286868601111561121c57600080fd5b858560208301376000602087830101525050509392505050565b6000806000806080858703121561124c57600080fd5b61125585611106565b9350602085013567ffffffffffffffff81111561127157600080fd5b8501601f8101871361128257600080fd5b611291878235602084016111c0565b9350506112a060408601611106565b915060608501356001600160601b03811681146112bc57600080fd5b939692955090935050565b6000602082840312156112d957600080fd5b610dcd82611106565b600080604083850312156112f557600080fd5b6112fe83611106565b91506020830135801515811461131357600080fd5b809150509250929050565b6000806000806080858703121561133457600080fd5b61133d85611106565b935061134b60208601611106565b925060408501359150606085013567ffffffffffffffff81111561136e57600080fd5b8501601f8101871361137f57600080fd5b61138e878235602084016111c0565b91505092959194509250565b600080604083850312156113ad57600080fd5b6113b683611106565b91506113c460208401611106565b90509250929050565b600181811c908216806113e157607f821691505b60208210810361140157634e487b7160e01b600052602260045260246000fd5b50919050565b634e487b7160e01b600052601160045260246000fd5b80820281158282048414176102c2576102c2611407565b60008261145157634e487b7160e01b600052601260045260246000fd5b500490565b60006001820161146857611468611407565b5060010190565b601f82111561049f57600081815260208120601f850160051c810160208610156114965750805b601f850160051c820191505b818110156114b5578281556001016114a2565b505050505050565b815167ffffffffffffffff8111156114d7576114d76111aa565b6114eb816114e584546113cd565b8461146f565b602080601f83116001811461152057600084156115085750858301515b600019600386901b1c1916600185901b1785556114b5565b600085815260208120601f198616915b8281101561154f57888601518255948401946001909101908401611530565b508582101561156d5787850151600019600388901b60f8161c191681555b5050505050600190811b01905550565b6001600160a01b03858116825284166020820152604081018390526080606082018190526000906115b0908301846110ae565b9695505050505050565b6000602082840312156115cc57600080fd5b8151610dcd81611057565b600083516115e981846020880161108a565b8351908301906115fd81836020880161108a565b0194935050505056fea2646970667358221220f1ee696d7a008f4a2a746489aa53e639d0ad1d76ad058de2e7f0edac0ace135c64736f6c63430008140033",
  "linkReferences": {},
  "deployedLinkReferences": {}
}