{
  "_format": "hh-sol-artifact-1",
  "contractName": "ERC1155Token",
  "sourceName": "contracts/ERC1155Token.sol",
  "abi": [
    {
      "inputs": [
        {
          "internalType": "string",
          "name": "_name",
          "type": "string"
        },
        {
          "internalType": "string",
          "name": "_symbol",
          "type": "string"
        },
        {
          "internalType": "string",
          "name": "baseUri",
          "type": "string"
        }
      ],
      "stateMutability": "nonpayable",
      "type": "constructor"
    },
    {
      "inputs": [
        {
          "internalType": "address",
          "name": "sender",
          "type": "address"
        },
        {
          "internalType": "uint256",
          "name": "balance",
          "type": "uint256"
        },
        {
          "internalType": "uint256",
          "name": "needed",
          "type": "uint256"
        },
        {
          "internalType": "uint256",
          "name": "tokenId",
          "type": "uint256"
        }
      ],
      "name": "ERC1155InsufficientBalance",
      "type": "error"
    },
    {
      "inputs": [
        {
          "internalType": "address",
          "name": "approver",
          "type": "address"
        }
      ],
      "name": "ERC1155InvalidApprover",
      "type": "error"
    },
    {
      "inputs": [
        {
          "internalType": "uint256",
          "name": "idsLength",
          "type": "uint256"
        },
        {
          "internalType": "uint256",
          "name": "valuesLength",
          "type": "uint256"
        }
      ],
      "name": "ERC1155InvalidArrayLength",
      "type": "error"
    },
    {
      "inputs": [
        {
          "internalType": "address",
          "name": "operator",
          "type": "address"
        }
      ],
      "name": "ERC1155InvalidOperator",
      "type": "error"
    },
    {
      "inputs": [
        {
          "internalType": "address",
          "name": "receiver",
          "type": "address"
        }
      ],
      "name": "ERC1155InvalidReceiver",
      "type": "error"
    },
    {
      "inputs": [
        {
          "internalType": "address",
          "name": "sender",
          "type": "address"
        }
      ],
      "name": "ERC1155InvalidSender",
      "type": "error"
    },
    {
      "inputs": [
        {
          "internalType": "address",
          "name": "operator",
          "type": "address"
        },
        {
          "internalType": "address",
          "name": "owner",
          "type": "address"
        }
      ],
      "name": "ERC1155MissingApprovalForAll",
      "type": "error"
    },
    {
      "inputs": [
        {
          "internalType": "address",
          "name": "owner",
          "type": "address"
        }
      ],
      "name": "OwnableInvalidOwner",
      "type": "error"
    },
    {
      "inputs": [
        {
          "internalType": "address",
          "name": "account",
          "type": "address"
        }
      ],
      "name": "OwnableUnauthorizedAccount",
      "type": "error"
    },
    {
      "anonymous": false,
      "inputs": [
        {
          "indexed": true,
          "internalType": "address",
          "name": "account",
          "type": "address"
        },
        {
          "indexed": true,
          "internalType": "address",
          "name": "operator",
          "type": "address"
        },
        {
          "indexed": false,
          "internalType": "bool",
          "name": "approved",
          "type": "bool"
        }
      ],
      "name": "ApprovalForAll",
      "type": "event"
    },
    {
      "anonymous": false,
      "inputs": [
        {
          "indexed": true,
          "internalType": "address",
          "name": "previousOwner",
          "type": "address"
        },
        {
          "indexed": true,
          "internalType": "address",
          "name": "newOwner",
          "type": "address"
        }
      ],
      "name": "OwnershipTransferred",
      "type": "event"
    },
    {
      "anonymous": false,
      "inputs": [
        {
          "indexed": true,
          "internalType": "address",
          "name": "operator",
          "type": "address"
        },
        {
          "indexed": true,
          "internalType": "address",
          "name": "from",
          "type": "address"
        },
        {
          "indexed": true,
          "internalType": "address",
          "name": "to",
          "type": "address"
        },
        {
          "indexed": false,
          "internalType": "uint256[]",
          "name": "ids",
          "type": "uint256[]"
        },
        {
          "indexed": false,
          "internalType": "uint256[]",
          "name": "values",
          "type": "uint256[]"
        }
      ],
      "name": "TransferBatch",
      "type": "event"
    },
    {
      "anonymous": false,
      "inputs": [
        {
          "indexed": true,
          "internalType": "address",
          "name": "operator",
          "type": "address"
        },
        {
          "indexed": true,
          "internalType": "address",
          "name": "from",
          "type": "address"
        },
        {
          "indexed": true,
          "internalType": "address",
          "name": "to",
          "type": "address"
        },
        {
          "indexed": false,
          "internalType": "uint256",
          "name": "id",
          "type": "uint256"
        },
        {
          "indexed": false,
          "internalType": "uint256",
          "name": "value",
          "type": "uint256"
        }
      ],
      "name": "TransferSingle",
      "type": "event"
    },
    {
      "anonymous": false,
      "inputs": [
        {
          "indexed": false,
          "internalType": "string",
          "name": "value",
          "type": "string"
        },
        {
          "indexed": true,
          "internalType": "uint256",
          "name": "id",
          "type": "uint256"
        }
      ],
      "name": "URI",
      "type": "event"
    },
    {
      "inputs": [
        {
          "internalType": "address",
          "name": "account",
          "type": "address"
        },
        {
          "internalType": "uint256",
          "name": "id",
          "type": "uint256"
        }
      ],
      "name": "balanceOf",
      "outputs": [
        {
          "internalType": "uint256",
          "name": "",
          "type": "uint256"
        }
      ],
      "stateMutability": "view",
      "type": "function"
    },
    {
      "inputs": [
        {
          "internalType": "address[]",
          "name": "accounts",
          "type": "address[]"
        },
        {
          "internalType": "uint256[]",
          "name": "ids",
          "type": "uint256[]"
        }
      ],
      "name": "balanceOfBatch",
      "outputs": [
        {
          "internalType": "uint256[]",
          "name": "",
          "type": "uint256[]"
        }
      ],
      "stateMutability": "view",
      "type": "function"
    },
    {
      "inputs": [
        {
          "internalType": "address",
          "name": "account",
          "type": "address"
        },
        {
          "internalType": "address",
          "name": "operator",
          "type": "address"
        }
      ],
      "name": "isApprovedForAll",
      "outputs": [
        {
          "internalType": "bool",
          "name": "",
          "type": "bool"
        }
      ],
      "stateMutability": "view",
      "type": "function"
    },
    {
      "inputs": [
        {
          "internalType": "address",
          "name": "account",
          "type": "address"
        },
        {
          "internalType": "uint256",
          "name": "amount",
          "type": "uint256"
        },
        {
          "internalType": "string",
          "name": "tokenURI",
          "type": "string"
        },
        {
          "internalType": "address",
          "name": "royaltyRecipient",
          "type": "address"
        },
        {
          "internalType": "uint96",
          "name": "royaltyFraction",
          "type": "uint96"
        },
        {
          "internalType": "bytes",
          "name": "data",
          "type": "bytes"
        }
      ],
      "name": "mint",
      "outputs": [],
      "stateMutability": "nonpayable",
      "type": "function"
    },
    {
      "inputs": [
        {
          "internalType": "address",
          "name": "to",
          "type": "address"
        },
        {
          "internalType": "uint256[]",
          "name": "amounts",
          "type": "uint256[]"
        },
        {
          "internalType": "string[]",
          "name": "tokenURIs",
          "type": "string[]"
        },
        {
          "internalType": "address",
          "name": "royaltyRecipient",
          "type": "address"
        },
        {
          "internalType": "uint96",
          "name": "royaltyFraction",
          "type": "uint96"
        },
        {
          "internalType": "bytes",
          "name": "data",
          "type": "bytes"
        }
      ],
      "name": "mintBatch",
      "outputs": [],
      "stateMutability": "nonpayable",
      "type": "function"
    },
    {
      "inputs": [],
      "name": "name",
      "outputs": [
        {
          "internalType": "string",
          "name": "",
          "type": "string"
        }
      ],
      "stateMutability": "view",
      "type": "function"
    },
    {
      "inputs": [],
      "name": "owner",
      "outputs": [
        {
          "internalType": "address",
          "name": "",
          "type": "address"
        }
      ],
      "stateMutability": "view",
      "type": "function"
    },
    {
      "inputs": [],
      "name": "renounceOwnership",
      "outputs": [],
      "stateMutability": "nonpayable",
      "type": "function"
    },
    {
      "inputs": [
        {
          "internalType": "uint256",
          "name": "tokenId",
          "type": "uint256"
        },
        {
          "internalType": "uint256",
          "name": "salePrice",
          "type": "uint256"
        }
      ],
      "name": "royaltyInfo",
      "outputs": [
        {
          "internalType": "address",
          "name": "receiver",
          "type": "address"
        },
        {
          "internalType": "uint256",
          "name": "royaltyAmount",
          "type": "uint256"
        }
      ],
      "stateMutability": "view",
      "type": "function"
    },
    {
      "inputs": [
        {
          "internalType": "address",
          "name": "from",
          "type": "address"
        },
        {
          "internalType": "address",
          "name": "to",
          "type": "address"
        },
        {
          "internalType": "uint256[]",
          "name": "ids",
          "type": "uint256[]"
        },
        {
          "internalType": "uint256[]",
          "name": "values",
          "type": "uint256[]"
        },
        {
          "internalType": "bytes",
          "name": "data",
          "type": "bytes"
        }
      ],
      "name": "safeBatchTransferFrom",
      "outputs": [],
      "stateMutability": "nonpayable",
      "type": "function"
    },
    {
      "inputs": [
        {
          "internalType": "address",
          "name": "from",
          "type": "address"
        },
        {
          "internalType": "address",
          "name": "to",
          "type": "address"
        },
        {
          "internalType": "uint256",
          "name": "id",
          "type": "uint256"
        },
        {
          "internalType": "uint256",
          "name": "value",
          "type": "uint256"
        },
        {
          "internalType": "bytes",
          "name": "data",
          "type": "bytes"
        }
      ],
      "name": "safeTransferFrom",
      "outputs": [],
      "stateMutability": "nonpayable",
      "type": "function"
    },
    {
      "inputs": [
        {
          "internalType": "address",
          "name": "operator",
          "type": "address"
        },
        {
          "internalType": "bool",
          "name": "approved",
          "type": "bool"
        }
      ],
      "name": "setApprovalForAll",
      "outputs": [],
      "stateMutability": "nonpayable",
      "type": "function"
    },
    {
      "inputs": [
        {
          "internalType": "bytes4",
          "name": "interfaceId",
          "type": "bytes4"
        }
      ],
      "name": "supportsInterface",
      "outputs": [
        {
          "internalType": "bool",
          "name": "",
          "type": "bool"
        }
      ],
      "stateMutability": "view",
      "type": "function"
    },
    {
      "inputs": [],
      "name": "symbol",
      "outputs": [
        {
          "internalType": "string",
          "name": "",
          "type": "string"
        }
      ],
      "stateMutability": "view",
      "type": "function"
    },
    {
      "inputs": [
        {
          "internalType": "address",
          "name": "newOwner",
          "type": "address"
        }
      ],
      "name": "transferOwnership",
      "outputs": [],
      "stateMutability": "nonpayable",
      "type": "function"
    },
    {
      "inputs": [
        {
          "internalType": "uint256",
          "name": "tokenId",
          "type": "uint256"
        }
      ],
      "name": "uri",
      "outputs": [
        {
          "internalType": "string",
          "name": "",
          "type": "string"
        }
      ],
      "stateMutability": "view",
      "type": "function"
    }
  ],
  "bytecode": "0x608060405260006007553480156200001657600080fd5b5060405162001df138038062001df18339810160408190526200003991620001d2565b33816200004681620000a9565b506001600160a01b0381166200007657604051631e4fbdf760e01b81526000600482015260240160405180910390fd5b6200008181620000bb565b506005620000908482620002f2565b5060066200009f8382620002f2565b50505050620003be565b6002620000b78282620002f2565b5050565b600380546001600160a01b038381166001600160a01b0319831681179093556040519116919082907f8be0079c531659141344cd1fd0a4f28419497f9722a3daafe3b4186f6b6457e090600090a35050565b634e487b7160e01b600052604160045260246000fd5b600082601f8301126200013557600080fd5b81516001600160401b03808211156200015257620001526200010d565b604051601f8301601f19908116603f011681019082821181831017156200017d576200017d6200010d565b816040528381526020925086838588010111156200019a57600080fd5b600091505b83821015620001be57858201830151818301840152908201906200019f565b600093810190920192909252949350505050565b600080600060608486031215620001e857600080fd5b83516001600160401b03808211156200020057600080fd5b6200020e8783880162000123565b945060208601519150808211156200022557600080fd5b620002338783880162000123565b935060408601519150808211156200024a57600080fd5b50620002598682870162000123565b9150509250925092565b600181811c908216806200027857607f821691505b6020821081036200029957634e487b7160e01b600052602260045260246000fd5b50919050565b601f821115620002ed57600081815260208120601f850160051c81016020861015620002c85750805b601f850160051c820191505b81811015620002e957828155600101620002d4565b5050505b505050565b81516001600160401b038111156200030e576200030e6200010d565b62000326816200031f845462000263565b846200029f565b602080601f8311600181146200035e5760008415620003455750858301515b600019600386901b1c1916600185901b178555620002e9565b600085815260208120601f198616915b828110156200038f578886015182559484019460019091019084016200036e565b5085821015620003ae5787850151600019600388901b60f8161c191681555b5050505050600190811b01905550565b611a2380620003ce6000396000f3fe608060405234801561001057600080fd5b50600436106100ff5760003560e01c80638da5cb5b11610097578063e985e9c511610066578063e985e9c51461022d578063f242432a14610240578063f2fde38b14610253578063f64376a41461026657600080fd5b80638da5cb5b146101e457806395d89b41146101ff5780639da4e8a614610207578063a22cb4651461021a57600080fd5b80632a55205a116100d35780632a55205a146101755780632eb2c2d6146101a75780634e1273f4146101bc578063715018a6146101dc57600080fd5b8062fdd58e1461010457806301ffc9a71461012a57806306fdde031461014d5780630e89341c14610162575b600080fd5b61011761011236600461107c565b610279565b6040519081526020015b60405180910390f35b61013d6101383660046110bc565b6102a1565b6040519015158152602001610121565b6101556102ac565b6040516101219190611126565b610155610170366004611139565b61033a565b610188610183366004611152565b6103dc565b604080516001600160a01b039093168352602083019190915201610121565b6101ba6101b53660046112ba565b61043e565b005b6101cf6101ca366004611364565b6104aa565b6040516101219190611455565b6101ba61057f565b6003546040516001600160a01b039091168152602001610121565b610155610593565b6101ba61021536600461147f565b6105a0565b6101ba61022836600461151d565b6105f9565b61013d61023b366004611559565b610608565b6101ba61024e36600461158c565b610636565b6101ba6102613660046115f1565b610695565b6101ba61027436600461160c565b6106d3565b6000818152602081815260408083206001600160a01b03861684529091529020545b92915050565b600061029b8261083b565b600580546102b990611729565b80601f01602080910402602001604051908101604052809291908181526020018280546102e590611729565b80156103325780601f1061030757610100808354040283529160200191610332565b820191906000526020600020905b81548152906001019060200180831161031557829003601f168201915b505050505081565b600081815260086020526040902080546060919061035790611729565b80601f016020809104026020016040519081016040528092919081815260200182805461038390611729565b80156103d05780601f106103a5576101008083540402835291602001916103d0565b820191906000526020600020905b8154815290600101906020018083116103b357829003601f168201915b50505050509050919050565b60008281526004602090815260408083208151808301909252546001600160a01b038116808352600160a01b9091046001600160601b031692820183905292916127109061042a9086611779565b6104349190611790565b9150509250929050565b336001600160a01b038616811480159061045f575061045d8682610608565b155b156104955760405163711bec9160e11b81526001600160a01b038083166004830152871660248201526044015b60405180910390fd5b6104a28686868686610860565b505050505050565b606081518351146104db5781518351604051635b05999160e01b81526004810192909252602482015260440161048c565b6000835167ffffffffffffffff8111156104f7576104f7611174565b604051908082528060200260200182016040528015610520578160200160208202803683370190505b50905060005b84518110156105775760208082028601015161054a90602080840287010151610279565b82828151811061055c5761055c6117b2565b6020908102919091010152610570816117c8565b9050610526565b509392505050565b6105876108c7565b61059160006108f4565b565b600680546102b990611729565b6105a86108c7565b60006007600081546105b9906117c8565b918290555090506105cc87828885610946565b60008181526008602052604090206105e4868261182c565b506105f08185856109a3565b50505050505050565b610604338383610a3a565b5050565b6001600160a01b03918216600090815260016020908152604080832093909416825291909152205460ff1690565b336001600160a01b038616811480159061065757506106558682610608565b155b156106885760405163711bec9160e11b81526001600160a01b0380831660048301528716602482015260440161048c565b6104a28686868686610ad0565b61069d6108c7565b6001600160a01b0381166106c757604051631e4fbdf760e01b81526000600482015260240161048c565b6106d0816108f4565b50565b6106db6108c7565b845184511461071e5760405162461bcd60e51b815260206004820152600f60248201526e098cadccee8d040dad2e6dac2e8c6d608b1b604482015260640161048c565b6000855167ffffffffffffffff81111561073a5761073a611174565b604051908082528060200260200182016040528015610763578160200160208202803683370190505b50905060005b865181101561082e57600760008154610781906117c8565b919050819055828281518110610799576107996117b2565b6020026020010181815250508581815181106107b7576107b76117b2565b6020026020010151600860008484815181106107d5576107d56117b2565b6020026020010151815260200190815260200160002090816107f7919061182c565b5061081c82828151811061080d5761080d6117b2565b602002602001015186866109a3565b80610826816117c8565b915050610769565b506105f087828885610b55565b60006001600160e01b0319821663152a902d60e11b148061029b575061029b82610b93565b6001600160a01b03841661088a57604051632bfa23e760e11b81526000600482015260240161048c565b6001600160a01b0385166108b357604051626a0d4560e21b81526000600482015260240161048c565b6108c08585858585610be3565b5050505050565b6003546001600160a01b031633146105915760405163118cdaa760e01b815233600482015260240161048c565b600380546001600160a01b038381166001600160a01b0319831681179093556040519116919082907f8be0079c531659141344cd1fd0a4f28419497f9722a3daafe3b4186f6b6457e090600090a35050565b6001600160a01b03841661097057604051632bfa23e760e11b81526000600482015260240161048c565b604080516001808252602082018690528183019081526060820185905260808201909252906104a2600087848487610be3565b612710816001600160601b031611156109f05760405162461bcd60e51b815260206004820152600f60248201526e0526f79616c74793a203e313030303608c1b604482015260640161048c565b6040805180820182526001600160a01b0393841681526001600160601b0392831660208083019182526000968752600490529190942093519051909116600160a01b029116179055565b6001600160a01b038216610a635760405162ced3e160e81b81526000600482015260240161048c565b6001600160a01b03838116600081815260016020908152604080832094871680845294825291829020805460ff191686151590811790915591519182527f17307eab39ab6107e8899845ad3d59bd9653f200f220920489ca2b5937696c31910160405180910390a3505050565b6001600160a01b038416610afa57604051632bfa23e760e11b81526000600482015260240161048c565b6001600160a01b038516610b2357604051626a0d4560e21b81526000600482015260240161048c565b604080516001808252602082018690528183019081526060820185905260808201909252906105f08787848487610be3565b6001600160a01b038416610b7f57604051632bfa23e760e11b81526000600482015260240161048c565b610b8d600085858585610be3565b50505050565b60006001600160e01b03198216636cdb3d1360e11b1480610bc457506001600160e01b031982166303a24d0760e21b145b8061029b57506301ffc9a760e01b6001600160e01b031983161461029b565b610bef85858585610c36565b6001600160a01b038416156108c05782513390600103610c285760208481015190840151610c21838989858589610e53565b50506104a2565b6104a2818787878787610f77565b8051825114610c655781518151604051635b05999160e01b81526004810192909252602482015260440161048c565b3360005b8351811015610d74576020818102858101820151908501909101516001600160a01b03881615610d1c576000828152602081815260408083206001600160a01b038c16845290915290205481811015610cf5576040516303dee4c560e01b81526001600160a01b038a16600482015260248101829052604481018390526064810184905260840161048c565b6000838152602081815260408083206001600160a01b038d16845290915290209082900390555b6001600160a01b03871615610d61576000828152602081815260408083206001600160a01b038b16845290915281208054839290610d5b9084906118ec565b90915550505b505080610d6d906117c8565b9050610c69565b508251600103610df55760208301516000906020840151909150856001600160a01b0316876001600160a01b0316846001600160a01b03167fc3d58168c5ae7397731d063d5bbf3d657854427343f4c083240f7aacaa2d0f628585604051610de6929190918252602082015260400190565b60405180910390a450506108c0565b836001600160a01b0316856001600160a01b0316826001600160a01b03167f4a39dc06d4c0dbc64b70af90fd698a233a518aa5d07e595d983b8c0526c8f7fb8686604051610e449291906118ff565b60405180910390a45050505050565b6001600160a01b0384163b156104a25760405163f23a6e6160e01b81526001600160a01b0385169063f23a6e6190610e97908990899088908890889060040161192d565b6020604051808303816000875af1925050508015610ed2575060408051601f3d908101601f19168201909252610ecf91810190611972565b60015b610f3b573d808015610f00576040519150601f19603f3d011682016040523d82523d6000602084013e610f05565b606091505b508051600003610f3357604051632bfa23e760e11b81526001600160a01b038616600482015260240161048c565b805181602001fd5b6001600160e01b0319811663f23a6e6160e01b146105f057604051632bfa23e760e11b81526001600160a01b038616600482015260240161048c565b6001600160a01b0384163b156104a25760405163bc197c8160e01b81526001600160a01b0385169063bc197c8190610fbb908990899088908890889060040161198f565b6020604051808303816000875af1925050508015610ff6575060408051601f3d908101601f19168201909252610ff391810190611972565b60015b611024573d808015610f00576040519150601f19603f3d011682016040523d82523d6000602084013e610f05565b6001600160e01b0319811663bc197c8160e01b146105f057604051632bfa23e760e11b81526001600160a01b038616600482015260240161048c565b80356001600160a01b038116811461107757600080fd5b919050565b6000806040838503121561108f57600080fd5b61109883611060565b946020939093013593505050565b6001600160e01b0319811681146106d057600080fd5b6000602082840312156110ce57600080fd5b81356110d9816110a6565b9392505050565b6000815180845260005b81811015611106576020818501810151868301820152016110ea565b506000602082860101526020601f19601f83011685010191505092915050565b6020815260006110d960208301846110e0565b60006020828403121561114b57600080fd5b5035919050565b6000806040838503121561116557600080fd5b50508035926020909101359150565b634e487b7160e01b600052604160045260246000fd5b604051601f8201601f1916810167ffffffffffffffff811182821017156111b3576111b3611174565b604052919050565b600067ffffffffffffffff8211156111d5576111d5611174565b5060051b60200190565b600082601f8301126111f057600080fd5b81356020611205611200836111bb565b61118a565b82815260059290921b8401810191818101908684111561122457600080fd5b8286015b8481101561123f5780358352918301918301611228565b509695505050505050565b600082601f83011261125b57600080fd5b813567ffffffffffffffff81111561127557611275611174565b611288601f8201601f191660200161118a565b81815284602083860101111561129d57600080fd5b816020850160208301376000918101602001919091529392505050565b600080600080600060a086880312156112d257600080fd5b6112db86611060565b94506112e960208701611060565b9350604086013567ffffffffffffffff8082111561130657600080fd5b61131289838a016111df565b9450606088013591508082111561132857600080fd5b61133489838a016111df565b9350608088013591508082111561134a57600080fd5b506113578882890161124a565b9150509295509295909350565b6000806040838503121561137757600080fd5b823567ffffffffffffffff8082111561138f57600080fd5b818501915085601f8301126113a357600080fd5b813560206113b3611200836111bb565b82815260059290921b840181019181810190898411156113d257600080fd5b948201945b838610156113f7576113e886611060565b825294820194908201906113d7565b9650508601359250508082111561140d57600080fd5b50610434858286016111df565b600081518084526020808501945080840160005b8381101561144a5781518752958201959082019060010161142e565b509495945050505050565b6020815260006110d9602083018461141a565b80356001600160601b038116811461107757600080fd5b60008060008060008060c0878903121561149857600080fd5b6114a187611060565b955060208701359450604087013567ffffffffffffffff808211156114c557600080fd5b6114d18a838b0161124a565b95506114df60608a01611060565b94506114ed60808a01611468565b935060a089013591508082111561150357600080fd5b5061151089828a0161124a565b9150509295509295509295565b6000806040838503121561153057600080fd5b61153983611060565b91506020830135801515811461154e57600080fd5b809150509250929050565b6000806040838503121561156c57600080fd5b61157583611060565b915061158360208401611060565b90509250929050565b600080600080600060a086880312156115a457600080fd5b6115ad86611060565b94506115bb60208701611060565b93506040860135925060608601359150608086013567ffffffffffffffff8111156115e557600080fd5b6113578882890161124a565b60006020828403121561160357600080fd5b6110d982611060565b60008060008060008060c0878903121561162557600080fd5b61162e87611060565b955060208088013567ffffffffffffffff8082111561164c57600080fd5b6116588b838c016111df565b975060408a013591508082111561166e57600080fd5b818a0191508a601f83011261168257600080fd5b8135611690611200826111bb565b81815260059190911b8301840190848101908d8311156116af57600080fd5b8585015b838110156116e55784813511156116c957600080fd5b6116d88f88833589010161124a565b83529186019186016116b3565b5098506116f791505060608b01611060565b955061170560808b01611468565b945060a08a013592508083111561171b57600080fd5b505061151089828a0161124a565b600181811c9082168061173d57607f821691505b60208210810361175d57634e487b7160e01b600052602260045260246000fd5b50919050565b634e487b7160e01b600052601160045260246000fd5b808202811582820484141761029b5761029b611763565b6000826117ad57634e487b7160e01b600052601260045260246000fd5b500490565b634e487b7160e01b600052603260045260246000fd5b6000600182016117da576117da611763565b5060010190565b601f82111561182757600081815260208120601f850160051c810160208610156118085750805b601f850160051c820191505b818110156104a257828155600101611814565b505050565b815167ffffffffffffffff81111561184657611846611174565b61185a816118548454611729565b846117e1565b602080601f83116001811461188f57600084156118775750858301515b600019600386901b1c1916600185901b1785556104a2565b600085815260208120601f198616915b828110156118be5788860151825594840194600190910190840161189f565b50858210156118dc5787850151600019600388901b60f8161c191681555b5050505050600190811b01905550565b8082018082111561029b5761029b611763565b604081526000611912604083018561141a565b8281036020840152611924818561141a565b95945050505050565b6001600160a01b03868116825285166020820152604081018490526060810183905260a060808201819052600090611967908301846110e0565b979650505050505050565b60006020828403121561198457600080fd5b81516110d9816110a6565b6001600160a01b0386811682528516602082015260a0604082018190526000906119bb9083018661141a565b82810360608401526119cd818661141a565b905082810360808401526119e181856110e0565b9897505050505050505056fea2646970667358221220514c15db64ba49ac0df4477c200c11bd45ab7802a381b1e680d916640cdccc5a64736f6c63430008140033",
  "linkReferences": {},
  "deployedLinkReferences": {}
}