{
  "_format": "hh-sol-artifact-1",
  "contractName": "NFTMarketplace",
  "sourceName": "contracts/NFTMarketplace.sol",
  "abi": [
    {
      "inputs": [
        {
          "internalType": "address",
          "name": "_feeRecipient",
          "type": "address"
        }
      ],
      "stateMutability": "nonpayable",
      "type": "constructor"
    },
    {
      "inputs": [
        {
          "internalType": "address",
          "name": "owner",
          "type": "address"
        }
      ],
      "name": "OwnableInvalidOwner",
      "type": "error"
    },
    {
      "inputs": [
        {
          "internalType": "address",
          "name": "account",
          "type": "address"
        }
      ],
      "name": "OwnableUnauthorizedAccount",
      "type": "error"
    },
    {
      "inputs": [],
      "name": "ReentrancyGuardReentrantCall",
      "type": "error"
    },
    {
      "anonymous": false,
      "inputs": [
        {
          "indexed": true,
          "internalType": "uint256",
          "name": "listingId",
          "type": "uint256"
        }
      ],
      "name": "Cancelled",
      "type": "event"
    },
    {
      "anonymous": false,
      "inputs": [
        {
          "indexed": true,
          "internalType": "uint256",
          "name": "listingId",
          "type": "uint256"
        },
        {
          "indexed": true,
          "internalType": "address",
          "name": "seller",
          "type": "address"
        },
        {
          "indexed": true,
          "internalType": "address",
          "name": "tokenAddress",
          "type": "address"
        },
        {
          "indexed": false,
          "internalType": "uint256",
          "name": "tokenId",
          "type": "uint256"
        },
        {
          "indexed": false,
          "internalType": "uint256",
          "name": "price",
          "type": "uint256"
        },
        {
          "indexed": false,
          "internalType": "uint256",
          "name": "amount",
          "type": "uint256"
        },
        {
          "indexed": false,
          "internalType": "bool",
          "name": "isERC1155",
          "type": "bool"
        }
      ],
      "name": "Listed",
      "type": "event"
    },
    {
      "anonymous": false,
      "inputs": [
        {
          "indexed": true,
          "internalType": "address",
          "name": "previousOwner",
          "type": "address"
        },
        {
          "indexed": true,
          "internalType": "address",
          "name": "newOwner",
          "type": "address"
        }
      ],
      "name": "OwnershipTransferred",
      "type": "event"
    },
    {
      "anonymous": false,
      "inputs": [
        {
          "indexed": true,
          "internalType": "uint256",
          "name": "listingId",
          "type": "uint256"
        },
        {
          "indexed": true,
          "internalType": "address",
          "name": "buyer",
          "type": "address"
        },
        {
          "indexed": true,
          "internalType": "address",
          "name": "seller",
          "type": "address"
        },
        {
          "indexed": false,
          "internalType": "uint256",
          "name": "price",
          "type": "uint256"
        }
      ],
      "name": "Purchased",
      "type": "event"
    },
    {
      "inputs": [
        {
          "internalType": "uint256",
          "name": "listingId",
          "type": "uint256"
        }
      ],
      "name": "cancelListing",
      "outputs": [],
      "stateMutability": "nonpayable",
      "type": "function"
    },
    {
      "inputs": [],
      "name": "feeRecipient",
      "outputs": [
        {
          "internalType": "address",
          "name": "",
          "type": "address"
        }
      ],
      "stateMutability": "view",
      "type": "function"
    },
    {
      "inputs": [
        {
          "internalType": "address",
          "name": "tokenAddress",
          "type": "address"
        },
        {
          "internalType": "uint256",
          "name": "tokenId",
          "type": "uint256"
        },
        {
          "internalType": "uint256",
          "name": "price",
          "type": "uint256"
        },
        {
          "internalType": "uint256",
          "name": "amount",
          "type": "uint256"
        },
        {
          "internalType": "bool",
          "name": "isERC1155",
          "type": "bool"
        }
      ],
      "name": "listToken",
      "outputs": [
        {
          "internalType": "uint256",
          "name": "",
          "type": "uint256"
        }
      ],
      "stateMutability": "nonpayable",
      "type": "function"
    },
    {
      "inputs": [],
      "name": "listingCounter",
      "outputs": [
        {
          "internalType": "uint256",
          "name": "",
          "type": "uint256"
        }
      ],
      "stateMutability": "view",
      "type": "function"
    },
    {
      "inputs": [
        {
          "internalType": "uint256",
          "name": "",
          "type": "uint256"
        }
      ],
      "name": "listings",
      "outputs": [
        {
          "internalType": "address",
          "name": "seller",
          "type": "address"
        },
        {
          "internalType": "address",
          "name": "tokenAddress",
          "type": "address"
        },
        {
          "internalType": "uint256",
          "name": "tokenId",
          "type": "uint256"
        },
        {
          "internalType": "uint256",
          "name": "price",
          "type": "uint256"
        },
        {
          "internalType": "uint256",
          "name": "amount",
          "type": "uint256"
        },
        {
          "internalType": "bool",
          "name": "isERC1155",
          "type": "bool"
        },
        {
          "internalType": "bool",
          "name": "active",
          "type": "bool"
        }
      ],
      "stateMutability": "view",
      "type": "function"
    },
    {
      "inputs": [],
      "name": "owner",
      "outputs": [
        {
          "internalType": "address",
          "name": "",
          "type": "address"
        }
      ],
      "stateMutability": "view",
      "type": "function"
    },
    {
      "inputs": [],
      "name": "platformFee",
      "outputs": [
        {
          "internalType": "uint256",
          "name": "",
          "type": "uint256"
        }
      ],
      "stateMutability": "view",
      "type": "function"
    },
    {
      "inputs": [
        {
          "internalType": "uint256",
          "name": "listingId",
          "type": "uint256"
        }
      ],
      "name": "purchaseToken",
      "outputs": [],
      "stateMutability": "payable",
      "type": "function"
    },
    {
      "inputs": [],
      "name": "renounceOwnership",
      "outputs": [],
      "stateMutability": "nonpayable",
      "type": "function"
    },
    {
      "inputs": [
        {
          "internalType": "address",
          "name": "newOwner",
          "type": "address"
        }
      ],
      "name": "transferOwnership",
      "outputs": [],
      "stateMutability": "nonpayable",
      "type": "function"
    },
    {
      "inputs": [
        {
          "internalType": "address",
          "name": "newRecipient",
          "type": "address"
        }
      ],
      "name": "updateFeeRecipient",
      "outputs": [],
      "stateMutability": "nonpayable",
      "type": "function"
    },
    {
      "inputs": [
        {
          "internalType": "uint256",
          "name": "newFee",
          "type": "uint256"
        }
      ],
      "name": "updatePlatformFee",
      "outputs": [],
      "stateMutability": "nonpayable",
      "type": "function"
    }
  ],
  "bytecode": "0x608060405260fa60045534801561001557600080fd5b50604051611148380380611148833981016040819052610034916100e0565b6001600055338061005f57604051631e4fbdf760e01b81526000600482015260240160405180910390fd5b6100688161008e565b50600580546001600160a01b0319166001600160a01b0392909216919091179055610110565b600180546001600160a01b038381166001600160a01b0319831681179093556040519116919082907f8be0079c531659141344cd1fd0a4f28419497f9722a3daafe3b4186f6b6457e090600090a35050565b6000602082840312156100f257600080fd5b81516001600160a01b038116811461010957600080fd5b9392505050565b6110298061011f6000396000f3fe6080604052600436106100a75760003560e01c8063aa0b598811610064578063aa0b598814610178578063c2db2c4214610198578063de74e57b146101ab578063f0424b4314610258578063f160d36914610278578063f2fde38b1461029857600080fd5b806326232a2e146100ac578063305a67a8146100d557806346904840146100f75780636c2c9c7d1461012f578063715018a6146101455780638da5cb5b1461015a575b600080fd5b3480156100b857600080fd5b506100c260045481565b6040519081526020015b60405180910390f35b3480156100e157600080fd5b506100f56100f0366004610e3b565b6102b8565b005b34801561010357600080fd5b50600554610117906001600160a01b031681565b6040516001600160a01b0390911681526020016100cc565b34801561013b57600080fd5b506100c260025481565b34801561015157600080fd5b506100f561039b565b34801561016657600080fd5b506001546001600160a01b0316610117565b34801561018457600080fd5b506100f5610193366004610e3b565b6103af565b6100f56101a6366004610e3b565b6103fd565b3480156101b757600080fd5b506102146101c6366004610e3b565b60036020819052600091825260409091208054600182015460028301549383015460048401546005909401546001600160a01b03938416959390921693909160ff8082169161010090041687565b604080516001600160a01b0398891681529790961660208801529486019390935260608501919091526080840152151560a0830152151560c082015260e0016100cc565b34801561026457600080fd5b506100c2610273366004610e77565b6107e8565b34801561028457600080fd5b506100f5610293366004610ecd565b610ce5565b3480156102a457600080fd5b506100f56102b3366004610ecd565b610d57565b60008181526003602052604090206005810154610100900460ff166103195760405162461bcd60e51b81526020600482015260126024820152714c697374696e67206e6f742061637469766560701b60448201526064015b60405180910390fd5b80546001600160a01b0316331461035f5760405162461bcd60e51b815260206004820152600a6024820152692737ba1039b2b63632b960b11b6044820152606401610310565b60058101805461ff001916905560405182907fc41d93b8bfbf9fd7cf5bfe271fd649ab6a6fec0ea101c23b82a2a28eca2533a990600090a25050565b6103a3610d92565b6103ad6000610dbf565b565b6103b7610d92565b6103e88111156103f85760405162461bcd60e51b815260206004820152600c60248201526b08ccaca40e8dede40d0d2ced60a31b6044820152606401610310565b600455565b610405610e11565b60008181526003602052604090206005810154610100900460ff166104615760405162461bcd60e51b81526020600482015260126024820152714c697374696e67206e6f742061637469766560701b6044820152606401610310565b80600301543410156104ac5760405162461bcd60e51b8152602060048201526014602482015273125b9cdd59999a58da595b9d081c185e5b595b9d60621b6044820152606401610310565b600061271060045483600301546104c39190610f07565b6104cd9190610f24565b905060008183600301546104e19190610f46565b60018401546002850154600386015460405163152a902d60e11b815293945060009384936001600160a01b031692632a55205a9261052a92600401918252602082015260400190565b6040805180830381865afa925050508015610562575060408051601f3d908101601f1916820190925261055f91810190610f59565b60015b1561059a576001600160a01b0382161580159061057f5750600081115b15610597579250905080826105948186610f46565b94505b50505b6000821180156105b257506001600160a01b03811615155b156105ef576040516001600160a01b0382169083156108fc029084906000818181858888f193505050501580156105ed573d6000803e3d6000fd5b505b84546040516001600160a01b039091169084156108fc029085906000818181858888f19350505050158015610628573d6000803e3d6000fd5b506005546040516001600160a01b039091169085156108fc029086906000818181858888f19350505050158015610663573d6000803e3d6000fd5b50600585015460ff161561070957600185015485546002870154600480890154604051637921219560e11b81526001600160a01b03948516928101929092523360248301526044820192909252606481019190915260a06084820152600060a482015291169063f242432a9060c401600060405180830381600087803b1580156106ec57600080fd5b505af1158015610700573d6000803e3d6000fd5b5050505061077f565b600185015485546002870154604051632142170760e11b81526001600160a01b03928316600482015233602482015260448101919091529116906342842e0e90606401600060405180830381600087803b15801561076657600080fd5b505af115801561077a573d6000803e3d6000fd5b505050505b60058501805461ff0019169055845460038601546040519081526001600160a01b0390911690339088907f3fb02bfbf01f7dc3a4c6903acc6b06ca1d9af7647282593f46cbacefc288b6029060200160405180910390a450505050506107e56001600055565b50565b60006107f2610e11565b600084116108365760405162461bcd60e51b815260206004820152601160248201527005072696365206d757374206265203e203607c1b6044820152606401610310565b81156109ad57604051627eeac760e11b815233600482015260248101869052869084906001600160a01b0383169062fdd58e90604401602060405180830381865afa158015610889573d6000803e3d6000fd5b505050506040513d601f19601f820116820180604052508101906108ad9190610f87565b10156108f25760405162461bcd60e51b8152602060048201526014602482015273496e73756666696369656e742062616c616e636560601b6044820152606401610310565b60405163e985e9c560e01b81523360048201523060248201526001600160a01b0382169063e985e9c590604401602060405180830381865afa15801561093c573d6000803e3d6000fd5b505050506040513d601f19601f820116820180604052508101906109609190610fa0565b6109a75760405162461bcd60e51b815260206004820152601860248201527713585c9ad95d1c1b1858d9481b9bdd08185c1c1c9bdd995960421b6044820152606401610310565b50610b94565b6040516331a9108f60e11b815260048101869052869033906001600160a01b03831690636352211e90602401602060405180830381865afa1580156109f6573d6000803e3d6000fd5b505050506040513d601f19601f82011682018060405250810190610a1a9190610fbd565b6001600160a01b031614610a625760405162461bcd60e51b815260206004820152600f60248201526e2737ba103a37b5b2b71037bbb732b960891b6044820152606401610310565b60405163020604bf60e21b81526004810187905230906001600160a01b0383169063081812fc90602401602060405180830381865afa158015610aa9573d6000803e3d6000fd5b505050506040513d601f19601f82011682018060405250810190610acd9190610fbd565b6001600160a01b03161480610b4b575060405163e985e9c560e01b81523360048201523060248201526001600160a01b0382169063e985e9c590604401602060405180830381865afa158015610b27573d6000803e3d6000fd5b505050506040513d601f19601f82011682018060405250810190610b4b9190610fa0565b610b925760405162461bcd60e51b815260206004820152601860248201527713585c9ad95d1c1b1858d9481b9bdd08185c1c1c9bdd995960421b6044820152606401610310565b505b60028054906000610ba483610fda565b90915550506040805160e081018252338082526001600160a01b0389811660208085018281528587018c8152606087018c8152608088018c81528b151560a08a01908152600160c08b018181526002805460009081526003998a90528e90209c518d54908c166001600160a01b0319918216178e559751928d01805493909b16929097169190911790985592518985015590519388019390935591516004870155905160059095018054935115156101000261ff00199615159690961661ffff19909416939093179490941790915591549251919290917ffb30e8db5351d412b1b7c972afabd5194a7d30869c98aac68c8ffa601691560990610cc6908a908a908a908a90938452602084019290925260408301521515606082015260800190565b60405180910390a450600254610cdc6001600055565b95945050505050565b610ced610d92565b6001600160a01b038116610d355760405162461bcd60e51b815260206004820152600f60248201526e496e76616c6964206164647265737360881b6044820152606401610310565b600580546001600160a01b0319166001600160a01b0392909216919091179055565b610d5f610d92565b6001600160a01b038116610d8957604051631e4fbdf760e01b815260006004820152602401610310565b6107e581610dbf565b6001546001600160a01b031633146103ad5760405163118cdaa760e01b8152336004820152602401610310565b600180546001600160a01b038381166001600160a01b0319831681179093556040519116919082907f8be0079c531659141344cd1fd0a4f28419497f9722a3daafe3b4186f6b6457e090600090a35050565b600260005403610e3457604051633ee5aeb560e01b815260040160405180910390fd5b6002600055565b600060208284031215610e4d57600080fd5b5035919050565b6001600160a01b03811681146107e557600080fd5b80151581146107e557600080fd5b600080600080600060a08688031215610e8f57600080fd5b8535610e9a81610e54565b94506020860135935060408601359250606086013591506080860135610ebf81610e69565b809150509295509295909350565b600060208284031215610edf57600080fd5b8135610eea81610e54565b9392505050565b634e487b7160e01b600052601160045260246000fd5b8082028115828204841417610f1e57610f1e610ef1565b92915050565b600082610f4157634e487b7160e01b600052601260045260246000fd5b500490565b81810381811115610f1e57610f1e610ef1565b60008060408385031215610f6c57600080fd5b8251610f7781610e54565b6020939093015192949293505050565b600060208284031215610f9957600080fd5b5051919050565b600060208284031215610fb257600080fd5b8151610eea81610e69565b600060208284031215610fcf57600080fd5b8151610eea81610e54565b600060018201610fec57610fec610ef1565b506001019056fea26469706673582212204cb4af188422ed22276f3a7c6695858c837f2153f260b4ec265ed11756e6d6f164736f6c63430008140033",
  "linkReferences": {},
  "deployedLinkReferences": {}
}